{
  "contractName": "AuditorCoin",
  "abi": [
    {
      "constant": false,
      "inputs": [
        {
          "name": "_addr",
          "type": "address"
        }
      ],
      "name": "reward",
      "outputs": [],
      "payable": false,
      "stateMutability": "nonpayable",
      "type": "function"
    },
    {
      "constant": false,
      "inputs": [
        {
          "name": "_addr",
          "type": "address"
        }
      ],
      "name": "destroy",
      "outputs": [],
      "payable": false,
      "stateMutability": "nonpayable",
      "type": "function"
    },
    {
      "constant": true,
      "inputs": [
        {
          "name": "_addr",
          "type": "address"
        }
      ],
      "name": "getBalance",
      "outputs": [
        {
          "name": "",
          "type": "uint256"
        }
      ],
      "payable": false,
      "stateMutability": "view",
      "type": "function"
    }
  ],
  "bytecode": "0x608060405234801561001057600080fd5b506102d0806100206000396000f300608060405260043610610056576000357c0100000000000000000000000000000000000000000000000000000000900463ffffffff168062f55d9d1461005b5780636353586b1461009e578063f8b2cb4f146100e1575b600080fd5b34801561006757600080fd5b5061009c600480360381019080803573ffffffffffffffffffffffffffffffffffffffff169060200190929190505050610138565b005b3480156100aa57600080fd5b506100df600480360381019080803573ffffffffffffffffffffffffffffffffffffffff16906020019092919050505061020c565b005b3480156100ed57600080fd5b50610122600480360381019080803573ffffffffffffffffffffffffffffffffffffffff16906020019092919050505061025c565b6040518082815260200191505060405180910390f35b60008060008373ffffffffffffffffffffffffffffffffffffffff1673ffffffffffffffffffffffffffffffffffffffff1681526020019081526020016000205411151561018557600080fd5b60016000808373ffffffffffffffffffffffffffffffffffffffff1673ffffffffffffffffffffffffffffffffffffffff16815260200190815260200160002054036000808373ffffffffffffffffffffffffffffffffffffffff1673ffffffffffffffffffffffffffffffffffffffff1681526020019081526020016000208190555050565b60016000808373ffffffffffffffffffffffffffffffffffffffff1673ffffffffffffffffffffffffffffffffffffffff1681526020019081526020016000206000828254019250508190555050565b60008060008373ffffffffffffffffffffffffffffffffffffffff1673ffffffffffffffffffffffffffffffffffffffff1681526020019081526020016000205490509190505600a165627a7a723058209303d7835bad26c80b88594656495291a5f1e3fdad79de26269ede047f8b96e70029",
  "source": "pragma solidity ^0.4.19;\n\ncontract AuditorCoin {\n    mapping(address => uint256) balance;\n\n    function reward(address _addr) {\n        balance[_addr]+=1;\n    }\n\n    function destroy(address _addr) {\n        require(balance[_addr]>0);\n        balance[_addr] = balance[_addr] - 1;\n    }\n\n    function getBalance(address _addr) constant returns(uint256) {\n        return balance[_addr];\n    }\n}\n\ncontract DFX {\n    address transmitter;\n    address fiatrelayer;\n    address auditor;\n\n    uint256 ethAmount;\n    uint256 fiatAmount;\n\n    bool auditComplete;\n    string metaDataForAuditor;\n    string metaDataForRelayer;\n\n    string IPFSHash;\n\n    AuditorCoin auditorCoin;\n\n    function setIPFSHash(string _hash) {\n        IPFSHash = _hash;\n    }\n\n    function getIPFSHash() constant returns(string) {\n        return IPFSHash;\n    }\n\n    function getMetaDataForAuditor() constant returns(string) {\n        return metaDataForAuditor;\n    }\n\n    function getMetaDataForRelayer() constant returns(string) {\n        return metaDataForRelayer;\n    }\n\n    function getTransmitter() constant returns(address) {\n        return transmitter;\n    }\n\n    function getFiatRelayer() constant returns(address) {\n        return fiatrelayer;\n    }\n\n    function getAuditor() constant returns(address) {\n        return auditor;\n    }\n\n    function getAuditorCoinBalance() constant returns(uint256) {\n        return auditorCoin.getBalance(auditor);\n    }\n\n    function getEthAmount() constant returns(uint256) {\n        return ethAmount;\n    }\n\n    function getFiatAmount() constant returns(uint256) {\n        return fiatAmount;\n    }\n\n    function getCollateralizedBalance() returns(uint256) {\n        return this.balance;\n    }\n\n    function initiateContract(address auditorCoinAddr, address _auditor, address _fiatrelayer, uint256 _ethAmount, uint256 _fiatAmount) payable {\n        require(msg.value > 0);\n        auditorCoin = AuditorCoin(auditorCoinAddr);\n        ethAmount = _ethAmount;\n        fiatAmount = _fiatAmount;\n\n        transmitter = msg.sender;\n        auditor = _auditor;\n        fiatrelayer = _fiatrelayer;\n\n        auditorCoin.reward(auditor);\n\n        metaDataForAuditor = \"The relayer is expected to transmit INR 100 to the recipient. Recipient can be contacted at +91 9999999999 or abc@abc.com\";\n        metaDataForRelayer = \"Smart contract collateralized with requisite ether. Please transfer INR 100 to Bank account: 12345, Bank Name: ABC, Bank Branch: XYZ\";\n    }\n\n    function settleContract(uint256 _decision) {\n        if(_decision == 1) { // fiat was successfully trasnferred, transfer collateral to relayer\n            fiatrelayer.transfer(this.balance);\n        } else { // fiat was not successfully transferred, fuck off\n            transmitter.transfer(this.balance);\n        }\n    }\n\n    function rateAuditor(uint8 _rating) {\n        if(_rating == 1) {\n            auditorCoin.reward(auditor);\n        }\n    }\n\n}\n",
  "sourcePath": "/Users/aditya/Documents/Workspace/Blockchain/NYCHack/contracts/DFX.sol",
  "compiler": {
    "name": "solc",
    "version": "0.4.24+commit.e67f0147.Emscripten.clang"
  },
  "schemaVersion": "2.0.1",
  "updatedAt": "2018-07-15T13:06:44.788Z"
}