{
  "contractName": "DFX",
  "abi": [
    {
      "constant": false,
      "inputs": [
        {
          "name": "_hash",
          "type": "string"
        }
      ],
      "name": "setIPFSHash",
      "outputs": [],
      "payable": false,
      "stateMutability": "nonpayable",
      "type": "function"
    },
    {
      "constant": true,
      "inputs": [],
      "name": "getIPFSHash",
      "outputs": [
        {
          "name": "",
          "type": "string"
        }
      ],
      "payable": false,
      "stateMutability": "view",
      "type": "function"
    },
    {
      "constant": true,
      "inputs": [],
      "name": "getMetaDataForAuditor",
      "outputs": [
        {
          "name": "",
          "type": "string"
        }
      ],
      "payable": false,
      "stateMutability": "view",
      "type": "function"
    },
    {
      "constant": true,
      "inputs": [],
      "name": "getMetaDataForRelayer",
      "outputs": [
        {
          "name": "",
          "type": "string"
        }
      ],
      "payable": false,
      "stateMutability": "view",
      "type": "function"
    },
    {
      "constant": true,
      "inputs": [],
      "name": "getTransmitter",
      "outputs": [
        {
          "name": "",
          "type": "address"
        }
      ],
      "payable": false,
      "stateMutability": "view",
      "type": "function"
    },
    {
      "constant": true,
      "inputs": [],
      "name": "getFiatRelayer",
      "outputs": [
        {
          "name": "",
          "type": "address"
        }
      ],
      "payable": false,
      "stateMutability": "view",
      "type": "function"
    },
    {
      "constant": true,
      "inputs": [],
      "name": "getAuditor",
      "outputs": [
        {
          "name": "",
          "type": "address"
        }
      ],
      "payable": false,
      "stateMutability": "view",
      "type": "function"
    },
    {
      "constant": true,
      "inputs": [],
      "name": "getAuditorCoinBalance",
      "outputs": [
        {
          "name": "",
          "type": "uint256"
        }
      ],
      "payable": false,
      "stateMutability": "view",
      "type": "function"
    },
    {
      "constant": true,
      "inputs": [],
      "name": "getEthAmount",
      "outputs": [
        {
          "name": "",
          "type": "uint256"
        }
      ],
      "payable": false,
      "stateMutability": "view",
      "type": "function"
    },
    {
      "constant": true,
      "inputs": [],
      "name": "getFiatAmount",
      "outputs": [
        {
          "name": "",
          "type": "uint256"
        }
      ],
      "payable": false,
      "stateMutability": "view",
      "type": "function"
    },
    {
      "constant": false,
      "inputs": [],
      "name": "getCollateralizedBalance",
      "outputs": [
        {
          "name": "",
          "type": "uint256"
        }
      ],
      "payable": false,
      "stateMutability": "nonpayable",
      "type": "function"
    },
    {
      "constant": false,
      "inputs": [
        {
          "name": "auditorCoinAddr",
          "type": "address"
        },
        {
          "name": "_auditor",
          "type": "address"
        },
        {
          "name": "_fiatrelayer",
          "type": "address"
        },
        {
          "name": "_ethAmount",
          "type": "uint256"
        },
        {
          "name": "_fiatAmount",
          "type": "uint256"
        }
      ],
      "name": "initiateContract",
      "outputs": [],
      "payable": true,
      "stateMutability": "payable",
      "type": "function"
    },
    {
      "constant": false,
      "inputs": [
        {
          "name": "_decision",
          "type": "uint256"
        }
      ],
      "name": "settleContract",
      "outputs": [],
      "payable": false,
      "stateMutability": "nonpayable",
      "type": "function"
    },
    {
      "constant": false,
      "inputs": [
        {
          "name": "_rating",
          "type": "uint8"
        }
      ],
      "name": "rateAuditor",
      "outputs": [],
      "payable": false,
      "stateMutability": "nonpayable",
      "type": "function"
    }
  ],
  "bytecode": "0x608060405234801561001057600080fd5b50610fd1806100206000396000f3006080604052600436106100d0576000357c0100000000000000000000000000000000000000000000000000000000900463ffffffff168063087d01df146100d557806320b28ade146101005780632577929b14610190578063305e83c8146101bd5780635bb5d121146101ed5780636ed66f111461024457806370f68a6f1461029b5780637de915b61461032b578063b72ddee9146103bb578063b8a76f5414610412578063c09d772d1461047b578063d491d675146104a6578063d9680a0e146104d1578063dbf222f7146104fc575b600080fd5b3480156100e157600080fd5b506100ea610586565b6040518082815260200191505060405180910390f35b34801561010c57600080fd5b50610115610590565b6040518080602001828103825283818151815260200191508051906020019080838360005b8381101561015557808201518184015260208101905061013a565b50505050905090810190601f1680156101825780820380516001836020036101000a031916815260200191505b509250505060405180910390f35b34801561019c57600080fd5b506101bb60048036038101908080359060200190929190505050610632565b005b3480156101c957600080fd5b506101eb600480360381019080803560ff169060200190929190505050610743565b005b3480156101f957600080fd5b5061020261084a565b604051808273ffffffffffffffffffffffffffffffffffffffff1673ffffffffffffffffffffffffffffffffffffffff16815260200191505060405180910390f35b34801561025057600080fd5b50610259610873565b604051808273ffffffffffffffffffffffffffffffffffffffff1673ffffffffffffffffffffffffffffffffffffffff16815260200191505060405180910390f35b3480156102a757600080fd5b506102b061089d565b6040518080602001828103825283818151815260200191508051906020019080838360005b838110156102f05780820151818401526020810190506102d5565b50505050905090810190601f16801561031d5780820380516001836020036101000a031916815260200191505b509250505060405180910390f35b34801561033757600080fd5b5061034061093f565b6040518080602001828103825283818151815260200191508051906020019080838360005b83811015610380578082015181840152602081019050610365565b50505050905090810190601f1680156103ad5780820380516001836020036101000a031916815260200191505b509250505060405180910390f35b3480156103c757600080fd5b506103d06109e1565b604051808273ffffffffffffffffffffffffffffffffffffffff1673ffffffffffffffffffffffffffffffffffffffff16815260200191505060405180910390f35b34801561041e57600080fd5b50610479600480360381019080803590602001908201803590602001908080601f0160208091040260200160405190810160405280939291908181526020018383808284378201915050505050509192919290505050610a0b565b005b34801561048757600080fd5b50610490610a25565b6040518082815260200191505060405180910390f35b3480156104b257600080fd5b506104bb610a44565b6040518082815260200191505060405180910390f35b3480156104dd57600080fd5b506104e6610a4e565b6040518082815260200191505060405180910390f35b610584600480360381019080803573ffffffffffffffffffffffffffffffffffffffff169060200190929190803573ffffffffffffffffffffffffffffffffffffffff169060200190929190803573ffffffffffffffffffffffffffffffffffffffff1690602001909291908035906020019092919080359060200190929190505050610b6f565b005b6000600354905090565b606060088054600181600116156101000203166002900480601f0160208091040260200160405190810160405280929190818152602001828054600181600116156101000203166002900480156106285780601f106105fd57610100808354040283529160200191610628565b820191906000526020600020905b81548152906001019060200180831161060b57829003601f168201915b5050505050905090565b60018114156106c057600160009054906101000a900473ffffffffffffffffffffffffffffffffffffffff1673ffffffffffffffffffffffffffffffffffffffff166108fc3073ffffffffffffffffffffffffffffffffffffffff16319081150290604051600060405180830381858888f193505050501580156106ba573d6000803e3d6000fd5b50610740565b6000809054906101000a900473ffffffffffffffffffffffffffffffffffffffff1673ffffffffffffffffffffffffffffffffffffffff166108fc3073ffffffffffffffffffffffffffffffffffffffff16319081150290604051600060405180830381858888f1935050505015801561073e573d6000803e3d6000fd5b505b50565b60018160ff16141561084757600960009054906101000a900473ffffffffffffffffffffffffffffffffffffffff1673ffffffffffffffffffffffffffffffffffffffff16636353586b600260009054906101000a900473ffffffffffffffffffffffffffffffffffffffff166040518263ffffffff167c0100000000000000000000000000000000000000000000000000000000028152600401808273ffffffffffffffffffffffffffffffffffffffff1673ffffffffffffffffffffffffffffffffffffffff168152602001915050600060405180830381600087803b15801561082e57600080fd5b505af1158015610842573d6000803e3d6000fd5b505050505b50565b60008060009054906101000a900473ffffffffffffffffffffffffffffffffffffffff16905090565b6000600160009054906101000a900473ffffffffffffffffffffffffffffffffffffffff16905090565b606060068054600181600116156101000203166002900480601f0160208091040260200160405190810160405280929190818152602001828054600181600116156101000203166002900480156109355780601f1061090a57610100808354040283529160200191610935565b820191906000526020600020905b81548152906001019060200180831161091857829003601f168201915b5050505050905090565b606060078054600181600116156101000203166002900480601f0160208091040260200160405190810160405280929190818152602001828054600181600116156101000203166002900480156109d75780601f106109ac576101008083540402835291602001916109d7565b820191906000526020600020905b8154815290600101906020018083116109ba57829003601f168201915b5050505050905090565b6000600260009054906101000a900473ffffffffffffffffffffffffffffffffffffffff16905090565b8060089080519060200190610a21929190610e7c565b5050565b60003073ffffffffffffffffffffffffffffffffffffffff1631905090565b6000600454905090565b6000600960009054906101000a900473ffffffffffffffffffffffffffffffffffffffff1673ffffffffffffffffffffffffffffffffffffffff1663f8b2cb4f600260009054906101000a900473ffffffffffffffffffffffffffffffffffffffff166040518263ffffffff167c0100000000000000000000000000000000000000000000000000000000028152600401808273ffffffffffffffffffffffffffffffffffffffff1673ffffffffffffffffffffffffffffffffffffffff168152602001915050602060405180830381600087803b158015610b2f57600080fd5b505af1158015610b43573d6000803e3d6000fd5b505050506040513d6020811015610b5957600080fd5b8101908080519060200190929190505050905090565b600034111515610b7e57600080fd5b84600960006101000a81548173ffffffffffffffffffffffffffffffffffffffff021916908373ffffffffffffffffffffffffffffffffffffffff1602179055508160038190555080600481905550336000806101000a81548173ffffffffffffffffffffffffffffffffffffffff021916908373ffffffffffffffffffffffffffffffffffffffff16021790555083600260006101000a81548173ffffffffffffffffffffffffffffffffffffffff021916908373ffffffffffffffffffffffffffffffffffffffff16021790555082600160006101000a81548173ffffffffffffffffffffffffffffffffffffffff021916908373ffffffffffffffffffffffffffffffffffffffff160217905550600960009054906101000a900473ffffffffffffffffffffffffffffffffffffffff1673ffffffffffffffffffffffffffffffffffffffff16636353586b600260009054906101000a900473ffffffffffffffffffffffffffffffffffffffff166040518263ffffffff167c0100000000000000000000000000000000000000000000000000000000028152600401808273ffffffffffffffffffffffffffffffffffffffff1673ffffffffffffffffffffffffffffffffffffffff168152602001915050600060405180830381600087803b158015610d6e57600080fd5b505af1158015610d82573d6000803e3d6000fd5b5050505060a060405190810160405280607981526020017f5468652072656c6179657220697320657870656374656420746f207472616e7381526020017f6d697420494e522031303020746f2074686520726563697069656e742e20526581526020017f63697069656e742063616e20626520636f6e746163746564206174202b39312081526020017f39393939393939393939206f7220616263406162632e636f6d0000000000000081525060069080519060200190610e44929190610e7c565b5060c06040519081016040528060848152602001610f226084913960079080519060200190610e74929190610e7c565b505050505050565b828054600181600116156101000203166002900490600052602060002090601f016020900481019282601f10610ebd57805160ff1916838001178555610eeb565b82800160010185558215610eeb579182015b82811115610eea578251825591602001919060010190610ecf565b5b509050610ef89190610efc565b5090565b610f1e91905b80821115610f1a576000816000905550600101610f02565b5090565b905600536d61727420636f6e747261637420636f6c6c61746572616c697a65642077697468207265717569736974652065746865722e20506c65617365207472616e7366657220494e522031303020746f2042616e6b206163636f756e743a2031323334352c2042616e6b204e616d653a204142432c2042616e6b204272616e63683a2058595aa165627a7a7230582039df57d8cfbfe971b74af39f46f82674413c8e7afeddb0bb18875d86b4f07c0a0029",
  "source": "pragma solidity ^0.4.19;\n\ncontract AuditorCoin {\n    mapping(address => uint256) balance;\n\n    function reward(address _addr) {\n        balance[_addr]+=1;\n    }\n\n    function destroy(address _addr) {\n        require(balance[_addr]>0);\n        balance[_addr] = balance[_addr] - 1;\n    }\n\n    function getBalance(address _addr) constant returns(uint256) {\n        return balance[_addr];\n    }\n}\n\ncontract DFX {\n    address transmitter;\n    address fiatrelayer;\n    address auditor;\n\n    uint256 ethAmount;\n    uint256 fiatAmount;\n\n    bool auditComplete;\n    string metaDataForAuditor;\n    string metaDataForRelayer;\n\n    string IPFSHash;\n\n    AuditorCoin auditorCoin;\n\n    function setIPFSHash(string _hash) {\n        IPFSHash = _hash;\n    }\n\n    function getIPFSHash() constant returns(string) {\n        return IPFSHash;\n    }\n\n    function getMetaDataForAuditor() constant returns(string) {\n        return metaDataForAuditor;\n    }\n\n    function getMetaDataForRelayer() constant returns(string) {\n        return metaDataForRelayer;\n    }\n\n    function getTransmitter() constant returns(address) {\n        return transmitter;\n    }\n\n    function getFiatRelayer() constant returns(address) {\n        return fiatrelayer;\n    }\n\n    function getAuditor() constant returns(address) {\n        return auditor;\n    }\n\n    function getAuditorCoinBalance() constant returns(uint256) {\n        return auditorCoin.getBalance(auditor);\n    }\n\n    function getEthAmount() constant returns(uint256) {\n        return ethAmount;\n    }\n\n    function getFiatAmount() constant returns(uint256) {\n        return fiatAmount;\n    }\n\n    function getCollateralizedBalance() returns(uint256) {\n        return this.balance;\n    }\n\n    function initiateContract(address auditorCoinAddr, address _auditor, address _fiatrelayer, uint256 _ethAmount, uint256 _fiatAmount) payable {\n        require(msg.value > 0);\n        auditorCoin = AuditorCoin(auditorCoinAddr);\n        ethAmount = _ethAmount;\n        fiatAmount = _fiatAmount;\n\n        transmitter = msg.sender;\n        auditor = _auditor;\n        fiatrelayer = _fiatrelayer;\n\n        auditorCoin.reward(auditor);\n\n        metaDataForAuditor = \"The relayer is expected to transmit INR 100 to the recipient. Recipient can be contacted at +91 9999999999 or abc@abc.com\";\n        metaDataForRelayer = \"Smart contract collateralized with requisite ether. Please transfer INR 100 to Bank account: 12345, Bank Name: ABC, Bank Branch: XYZ\";\n    }\n\n    function settleContract(uint256 _decision) {\n        if(_decision == 1) { // fiat was successfully trasnferred, transfer collateral to relayer\n            fiatrelayer.transfer(this.balance);\n        } else { // fiat was not successfully transferred, fuck off\n            transmitter.transfer(this.balance);\n        }\n    }\n\n    function rateAuditor(uint8 _rating) {\n        if(_rating == 1) {\n            auditorCoin.reward(auditor);\n        }\n    }\n\n}\n",
  "sourcePath": "/Users/aditya/Documents/Workspace/Blockchain/NYCHack/contracts/DFX.sol",
  "compiler": {
    "name": "solc",
    "version": "0.4.24+commit.e67f0147.Emscripten.clang"
  },
  "schemaVersion": "2.0.1",
  "updatedAt": "2018-07-15T13:06:44.794Z"
}